{
  "_format": "hh-sol-artifact-1",
  "contractName": "WebsiteContract",
  "sourceName": "contracts/WebToken.sol",
  "abi": [
    {
      "inputs": [],
      "stateMutability": "nonpayable",
      "type": "constructor"
    },
    {
      "inputs": [
        {
          "internalType": "address",
          "name": "owner",
          "type": "address"
        }
      ],
      "name": "OwnableInvalidOwner",
      "type": "error"
    },
    {
      "inputs": [
        {
          "internalType": "address",
          "name": "account",
          "type": "address"
        }
      ],
      "name": "OwnableUnauthorizedAccount",
      "type": "error"
    },
    {
      "anonymous": false,
      "inputs": [
        {
          "indexed": false,
          "internalType": "address",
          "name": "admin",
          "type": "address"
        }
      ],
      "name": "AdminAdded",
      "type": "event"
    },
    {
      "anonymous": false,
      "inputs": [
        {
          "indexed": false,
          "internalType": "address",
          "name": "admin",
          "type": "address"
        }
      ],
      "name": "AdminRemoved",
      "type": "event"
    },
    {
      "anonymous": false,
      "inputs": [
        {
          "indexed": true,
          "internalType": "address",
          "name": "owner",
          "type": "address"
        },
        {
          "indexed": true,
          "internalType": "address",
          "name": "operator",
          "type": "address"
        },
        {
          "indexed": false,
          "internalType": "bool",
          "name": "approved",
          "type": "bool"
        }
      ],
      "name": "Approval",
      "type": "event"
    },
    {
      "anonymous": false,
      "inputs": [],
      "name": "ContractLocked",
      "type": "event"
    },
    {
      "anonymous": false,
      "inputs": [],
      "name": "ContractMadeImmutable",
      "type": "event"
    },
    {
      "anonymous": false,
      "inputs": [],
      "name": "ContractUnlocked",
      "type": "event"
    },
    {
      "anonymous": false,
      "inputs": [
        {
          "indexed": false,
          "internalType": "address",
          "name": "tokenContract",
          "type": "address"
        },
        {
          "indexed": false,
          "internalType": "address",
          "name": "to",
          "type": "address"
        },
        {
          "indexed": false,
          "internalType": "uint256",
          "name": "amount",
          "type": "uint256"
        }
      ],
      "name": "ERC20Withdrawn",
      "type": "event"
    },
    {
      "anonymous": false,
      "inputs": [
        {
          "indexed": false,
          "internalType": "address",
          "name": "tokenContract",
          "type": "address"
        },
        {
          "indexed": false,
          "internalType": "address",
          "name": "to",
          "type": "address"
        },
        {
          "indexed": false,
          "internalType": "uint256",
          "name": "tokenId",
          "type": "uint256"
        }
      ],
      "name": "ERC721Withdrawn",
      "type": "event"
    },
    {
      "anonymous": false,
      "inputs": [
        {
          "indexed": false,
          "internalType": "address",
          "name": "to",
          "type": "address"
        },
        {
          "indexed": false,
          "internalType": "uint256",
          "name": "amount",
          "type": "uint256"
        }
      ],
      "name": "EtherWithdrawn",
      "type": "event"
    },
    {
      "anonymous": false,
      "inputs": [
        {
          "indexed": true,
          "internalType": "address",
          "name": "previousOwner",
          "type": "address"
        },
        {
          "indexed": true,
          "internalType": "address",
          "name": "newOwner",
          "type": "address"
        }
      ],
      "name": "OwnershipTransferred",
      "type": "event"
    },
    {
      "anonymous": false,
      "inputs": [
        {
          "indexed": false,
          "internalType": "string",
          "name": "redirectValue",
          "type": "string"
        },
        {
          "indexed": false,
          "internalType": "string",
          "name": "redirectType",
          "type": "string"
        },
        {
          "indexed": false,
          "internalType": "uint8",
          "name": "redirectCode",
          "type": "uint8"
        }
      ],
      "name": "RedirectSet",
      "type": "event"
    },
    {
      "anonymous": false,
      "inputs": [
        {
          "indexed": false,
          "internalType": "string",
          "name": "path",
          "type": "string"
        },
        {
          "indexed": false,
          "internalType": "uint256",
          "name": "chunkIndex",
          "type": "uint256"
        }
      ],
      "name": "ResourceChunkSet",
      "type": "event"
    },
    {
      "anonymous": false,
      "inputs": [
        {
          "indexed": false,
          "internalType": "string",
          "name": "path",
          "type": "string"
        }
      ],
      "name": "ResourceRemoved",
      "type": "event"
    },
    {
      "inputs": [
        {
          "internalType": "address",
          "name": "_admin",
          "type": "address"
        }
      ],
      "name": "addAdmin",
      "outputs": [],
      "stateMutability": "nonpayable",
      "type": "function"
    },
    {
      "inputs": [
        {
          "internalType": "address",
          "name": "to",
          "type": "address"
        },
        {
          "internalType": "bool",
          "name": "approved",
          "type": "bool"
        }
      ],
      "name": "approve",
      "outputs": [],
      "stateMutability": "nonpayable",
      "type": "function"
    },
    {
      "inputs": [],
      "name": "getRedirect",
      "outputs": [
        {
          "components": [
            {
              "internalType": "string",
              "name": "redirectValue",
              "type": "string"
            },
            {
              "internalType": "string",
              "name": "redirectType",
              "type": "string"
            },
            {
              "internalType": "uint8",
              "name": "redirectCode",
              "type": "uint8"
            }
          ],
          "internalType": "struct WebContract.RedirectInfo",
          "name": "",
          "type": "tuple"
        }
      ],
      "stateMutability": "view",
      "type": "function"
    },
    {
      "inputs": [
        {
          "internalType": "string",
          "name": "path",
          "type": "string"
        }
      ],
      "name": "getResource",
      "outputs": [
        {
          "internalType": "uint256",
          "name": "",
          "type": "uint256"
        },
        {
          "internalType": "string",
          "name": "",
          "type": "string"
        },
        {
          "internalType": "uint8",
          "name": "",
          "type": "uint8"
        }
      ],
      "stateMutability": "view",
      "type": "function"
    },
    {
      "inputs": [
        {
          "internalType": "string",
          "name": "path",
          "type": "string"
        },
        {
          "internalType": "uint256",
          "name": "index",
          "type": "uint256"
        }
      ],
      "name": "getResourceChunk",
      "outputs": [
        {
          "internalType": "bytes",
          "name": "",
          "type": "bytes"
        },
        {
          "internalType": "string",
          "name": "",
          "type": "string"
        }
      ],
      "stateMutability": "view",
      "type": "function"
    },
    {
      "inputs": [
        {
          "internalType": "address",
          "name": "operator",
          "type": "address"
        }
      ],
      "name": "isApproved",
      "outputs": [
        {
          "internalType": "bool",
          "name": "",
          "type": "bool"
        }
      ],
      "stateMutability": "view",
      "type": "function"
    },
    {
      "inputs": [],
      "name": "isImmutable",
      "outputs": [
        {
          "internalType": "bool",
          "name": "",
          "type": "bool"
        }
      ],
      "stateMutability": "view",
      "type": "function"
    },
    {
      "inputs": [],
      "name": "isLocked",
      "outputs": [
        {
          "internalType": "bool",
          "name": "",
          "type": "bool"
        }
      ],
      "stateMutability": "view",
      "type": "function"
    },
    {
      "inputs": [],
      "name": "lockContract",
      "outputs": [],
      "stateMutability": "nonpayable",
      "type": "function"
    },
    {
      "inputs": [],
      "name": "makeImmutable",
      "outputs": [],
      "stateMutability": "nonpayable",
      "type": "function"
    },
    {
      "inputs": [
        {
          "internalType": "address",
          "name": "",
          "type": "address"
        },
        {
          "internalType": "address",
          "name": "",
          "type": "address"
        },
        {
          "internalType": "uint256",
          "name": "",
          "type": "uint256"
        },
        {
          "internalType": "bytes",
          "name": "",
          "type": "bytes"
        }
      ],
      "name": "onERC721Received",
      "outputs": [
        {
          "internalType": "bytes4",
          "name": "",
          "type": "bytes4"
        }
      ],
      "stateMutability": "nonpayable",
      "type": "function"
    },
    {
      "inputs": [],
      "name": "owner",
      "outputs": [
        {
          "internalType": "address",
          "name": "",
          "type": "address"
        }
      ],
      "stateMutability": "view",
      "type": "function"
    },
    {
      "inputs": [
        {
          "internalType": "address",
          "name": "_admin",
          "type": "address"
        }
      ],
      "name": "removeAdmin",
      "outputs": [],
      "stateMutability": "nonpayable",
      "type": "function"
    },
    {
      "inputs": [
        {
          "internalType": "string",
          "name": "path",
          "type": "string"
        }
      ],
      "name": "removeResource",
      "outputs": [],
      "stateMutability": "nonpayable",
      "type": "function"
    },
    {
      "inputs": [],
      "name": "renounceOwnership",
      "outputs": [],
      "stateMutability": "nonpayable",
      "type": "function"
    },
    {
      "inputs": [
        {
          "internalType": "string",
          "name": "_value",
          "type": "string"
        },
        {
          "internalType": "string",
          "name": "_type",
          "type": "string"
        },
        {
          "internalType": "uint8",
          "name": "_code",
          "type": "uint8"
        }
      ],
      "name": "setRedirect",
      "outputs": [],
      "stateMutability": "nonpayable",
      "type": "function"
    },
    {
      "inputs": [
        {
          "internalType": "string",
          "name": "_path",
          "type": "string"
        },
        {
          "internalType": "bytes",
          "name": "_content",
          "type": "bytes"
        },
        {
          "internalType": "string",
          "name": "_contentType",
          "type": "string"
        },
        {
          "internalType": "uint256",
          "name": "_chunkIndex",
          "type": "uint256"
        },
        {
          "internalType": "uint8",
          "name": "_redirectCode",
          "type": "uint8"
        }
      ],
      "name": "setResourceChunk",
      "outputs": [],
      "stateMutability": "nonpayable",
      "type": "function"
    },
    {
      "inputs": [
        {
          "internalType": "address",
          "name": "from",
          "type": "address"
        },
        {
          "internalType": "address",
          "name": "to",
          "type": "address"
        }
      ],
      "name": "transferFrom",
      "outputs": [],
      "stateMutability": "nonpayable",
      "type": "function"
    },
    {
      "inputs": [
        {
          "internalType": "address",
          "name": "newOwner",
          "type": "address"
        }
      ],
      "name": "transferOwnership",
      "outputs": [],
      "stateMutability": "nonpayable",
      "type": "function"
    },
    {
      "inputs": [],
      "name": "unlockContract",
      "outputs": [],
      "stateMutability": "nonpayable",
      "type": "function"
    },
    {
      "inputs": [],
      "name": "webContractVersion",
      "outputs": [
        {
          "components": [
            {
              "internalType": "uint256",
              "name": "majorVersion",
              "type": "uint256"
            },
            {
              "internalType": "uint256",
              "name": "minorVersion",
              "type": "uint256"
            },
            {
              "internalType": "uint256",
              "name": "patchVersion",
              "type": "uint256"
            }
          ],
          "internalType": "struct WebContract.Version",
          "name": "",
          "type": "tuple"
        }
      ],
      "stateMutability": "pure",
      "type": "function"
    },
    {
      "inputs": [
        {
          "internalType": "address",
          "name": "_tokenContract",
          "type": "address"
        },
        {
          "internalType": "address",
          "name": "_to",
          "type": "address"
        },
        {
          "internalType": "uint256",
          "name": "_amount",
          "type": "uint256"
        }
      ],
      "name": "withdrawERC20",
      "outputs": [],
      "stateMutability": "nonpayable",
      "type": "function"
    },
    {
      "inputs": [
        {
          "internalType": "address",
          "name": "_tokenContract",
          "type": "address"
        },
        {
          "internalType": "address",
          "name": "_to",
          "type": "address"
        },
        {
          "internalType": "uint256",
          "name": "_tokenId",
          "type": "uint256"
        }
      ],
      "name": "withdrawERC721",
      "outputs": [],
      "stateMutability": "nonpayable",
      "type": "function"
    },
    {
      "inputs": [
        {
          "internalType": "address payable",
          "name": "_to",
          "type": "address"
        },
        {
          "internalType": "uint256",
          "name": "_amount",
          "type": "uint256"
        }
      ],
      "name": "withdrawEther",
      "outputs": [],
      "stateMutability": "nonpayable",
      "type": "function"
    }
  ],
  "bytecode": "0x60e06040526001608090815250600160a090815250600160c0908152503480156200002957600080fd5b50338080600073ffffffffffffffffffffffffffffffffffffffff168173ffffffffffffffffffffffffffffffffffffffff1603620000a25760006040517f1e4fbdf7000000000000000000000000000000000000000000000000000000008152600401620000999190620001c5565b60405180910390fd5b620000b381620000bc60201b60201c565b505050620001e2565b60008060009054906101000a900473ffffffffffffffffffffffffffffffffffffffff169050816000806101000a81548173ffffffffffffffffffffffffffffffffffffffff021916908373ffffffffffffffffffffffffffffffffffffffff1602179055508173ffffffffffffffffffffffffffffffffffffffff168173ffffffffffffffffffffffffffffffffffffffff167f8be0079c531659141344cd1fd0a4f28419497f9722a3daafe3b4186f6b6457e060405160405180910390a35050565b600073ffffffffffffffffffffffffffffffffffffffff82169050919050565b6000620001ad8262000180565b9050919050565b620001bf81620001a0565b82525050565b6000602082019050620001dc6000830184620001b4565b92915050565b60805160a05160c0516139d6620002126000396000611be801526000611bc201526000611b9c01526139d66000f3fe608060405234801561001057600080fd5b50600436106101585760003560e01c8063673448dd116100c3578063916e11f61161007c578063916e11f61461034f57806393dd5b0b1461036b578063a4e2d6341461039c578063bb0aa8ef146103ba578063c4ea3201146103d8578063f2fde38b146103f657610158565b8063673448dd146102c757806370480275146102f7578063715018a614610313578063753868e31461031d578063875d364e146103275780638da5cb5b1461033157610158565b80633d140d21116101155780633d140d21146102075780633e5c3335146102235780634025feb21461024157806344004cc11461025d578063522f68151461027957806365d801171461029557610158565b8063103f92511461015d578063150b7a02146101795780631785f53c146101a957806322f0f2f9146101c557806328b7cd21146101cf57806335afb95f146101eb575b600080fd5b61017760048036038101906101729190611f81565b610412565b005b610193600480360381019061018e919061213d565b6105cc565b6040516101a091906121fb565b60405180910390f35b6101c360048036038101906101be9190612216565b6105e0565b005b6101cd61067a565b005b6101e960048036038101906101e49190612332565b6106cb565b005b610205600480360381019061020091906124af565b610ad5565b005b610221600480360381019061021c9190612530565b610c96565b005b61022b610d65565b6040516102389190612655565b60405180910390f35b61025b60048036038101906102569190612677565b610fc2565b005b61027760048036038101906102729190612677565b611166565b005b610293600480360381019061028e9190612708565b61132d565b005b6102af60048036038101906102aa91906124af565b6113fc565b6040516102be939291906127b0565b60405180910390f35b6102e160048036038101906102dc9190612216565b611510565b6040516102ee91906127fd565b60405180910390f35b610311600480360381019061030c9190612216565b611566565b005b61031b611600565b005b610325611614565b005b61032f6116ce565b005b61033961171f565b6040516103469190612827565b60405180910390f35b61036960048036038101906103649190612842565b611748565b005b610385600480360381019061038091906128cd565b61192a565b60405161039392919061297e565b60405180910390f35b6103a4611b59565b6040516103b191906127fd565b60405180910390f35b6103c2611b70565b6040516103cf91906127fd565b60405180910390f35b6103e0611b87565b6040516103ed9190612a06565b60405180910390f35b610410600480360381019061040b9190612216565b611c0f565b005b61041a61171f565b73ffffffffffffffffffffffffffffffffffffffff168273ffffffffffffffffffffffffffffffffffffffff1614610487576040517f08c379a000000000000000000000000000000000000000000000000000000000815260040161047e90612a93565b60405180910390fd5b600073ffffffffffffffffffffffffffffffffffffffff168173ffffffffffffffffffffffffffffffffffffffff16036104f6576040517f08c379a00000000000000000000000000000000000000000000000000000000081526004016104ed90612b25565b60405180910390fd5b6104fe61171f565b73ffffffffffffffffffffffffffffffffffffffff163373ffffffffffffffffffffffffffffffffffffffff1614806105805750600760003373ffffffffffffffffffffffffffffffffffffffff1673ffffffffffffffffffffffffffffffffffffffff16815260200190815260200160002060009054906101000a900460ff165b6105bf576040517f08c379a00000000000000000000000000000000000000000000000000000000081526004016105b690612bb7565b60405180910390fd5b6105c881611c95565b5050565b600063150b7a0260e01b9050949350505050565b6105e8611d59565b6000600560008373ffffffffffffffffffffffffffffffffffffffff1673ffffffffffffffffffffffffffffffffffffffff16815260200190815260200160002060006101000a81548160ff0219169083151502179055507fa3b62bc36326052d97ea62d63c3d60308ed4c3ea8ac079dd8499f1e9c4f80c0f8160405161066f9190612827565b60405180910390a150565b610682611d59565b6000600460006101000a81548160ff0219169083151502179055507f3e5f4fd66bc9f59f15a9304dbc6394e240a57a1b4eb7ca42a75c5d9b298da45560405160405180910390a1565b6106d361171f565b73ffffffffffffffffffffffffffffffffffffffff163373ffffffffffffffffffffffffffffffffffffffff1614806107555750600560003373ffffffffffffffffffffffffffffffffffffffff1673ffffffffffffffffffffffffffffffffffffffff16815260200190815260200160002060009054906101000a900460ff165b610794576040517f08c379a000000000000000000000000000000000000000000000000000000000815260040161078b90612c23565b60405180910390fd5b600460009054906101000a900460ff161580156107be5750600460019054906101000a900460ff16155b6107fd576040517f08c379a00000000000000000000000000000000000000000000000000000000081526004016107f490612c8f565b60405180910390fd5b600060068989604051610811929190612cdf565b9081526020016040518091039020905060008160000190506000868690501161086f576040517f08c379a000000000000000000000000000000000000000000000000000000000815260040161086690612d44565b60405180910390fd5b600082600101805461088090612d93565b9050036108fa57858583600101918261089a929190612f7b565b50808888909180600181540180825580915050600190039060005260206000200160009091929091929091929091925091826108d79291906130b1565b50828260020160006101000a81548160ff021916908360ff160217905550610a8e565b858560405160200161090d929190612cdf565b60405160208183030381529060405280519060200120826001016040516020016109379190613204565b604051602081830303815290604052805190602001201461098d576040517f08c379a000000000000000000000000000000000000000000000000000000000815260040161098490613267565b60405180910390fd5b80805490508411156109d4576040517f08c379a00000000000000000000000000000000000000000000000000000000081526004016109cb906132d3565b60405180910390fd5b8084815481106109e7576109e66132f3565b5b906000526020600020016040516109fe91906133b0565b60405180910390208888604051610a169291906133ec565b604051809103902014610a51578787828681548110610a3857610a376132f3565b5b906000526020600020019182610a4f9291906130b1565b505b8160020160009054906101000a900460ff1660ff168360ff1614610a8d57828260020160006101000a81548160ff021916908360ff1602179055505b5b7fe98ac8d5aecadd28e4e358cd3ad94c86bf973e4001a01cfd34b7941c1b8f93298a8a86604051610ac193929190613432565b60405180910390a150505050505050505050565b610add61171f565b73ffffffffffffffffffffffffffffffffffffffff163373ffffffffffffffffffffffffffffffffffffffff161480610b5f5750600560003373ffffffffffffffffffffffffffffffffffffffff1673ffffffffffffffffffffffffffffffffffffffff16815260200190815260200160002060009054906101000a900460ff165b610b9e576040517f08c379a0000000000000000000000000000000000000000000000000000000008152600401610b9590612c23565b60405180910390fd5b600460009054906101000a900460ff16158015610bc85750600460019054906101000a900460ff16155b610c07576040517f08c379a0000000000000000000000000000000000000000000000000000000008152600401610bfe90612c8f565b60405180910390fd5b600681604051610c179190613495565b908152602001604051809103902060008082016000610c369190611de8565b600182016000610c469190611e09565b6002820160006101000a81549060ff021916905550507f79b387acb169f270ff00de2bd3bdabf8499b9085f4d44eff5ef2c181c331936a81604051610c8b91906134ac565b60405180910390a150565b610c9e611d59565b80600760008473ffffffffffffffffffffffffffffffffffffffff1673ffffffffffffffffffffffffffffffffffffffff16815260200190815260200160002060006101000a81548160ff0219169083151502179055508173ffffffffffffffffffffffffffffffffffffffff16610d1461171f565b73ffffffffffffffffffffffffffffffffffffffff167f1d3e246ebbc933bf65d3290db9f93d67ab91a12d2b19308a35806e04d1c174c583604051610d5991906127fd565b60405180910390a35050565b610d6d611e49565b6000600160020160009054906101000a900460ff1660ff1611610edd576001604051806060016040529081600082018054610da790612d93565b80601f0160208091040260200160405190810160405280929190818152602001828054610dd390612d93565b8015610e205780601f10610df557610100808354040283529160200191610e20565b820191906000526020600020905b815481529060010190602001808311610e0357829003601f168201915b50505050508152602001600182018054610e3990612d93565b80601f0160208091040260200160405190810160405280929190818152602001828054610e6590612d93565b8015610eb25780601f10610e8757610100808354040283529160200191610eb2565b820191906000526020600020905b815481529060010190602001808311610e9557829003601f168201915b505050505081526020016002820160009054906101000a900460ff1660ff1660ff1681525050610fbd565b604051806060016040528060018001604051602001610efc91906134f4565b604051602081830303815290604052815260200160016000018054610f2090612d93565b80601f0160208091040260200160405190810160405280929190818152602001828054610f4c90612d93565b8015610f995780601f10610f6e57610100808354040283529160200191610f99565b820191906000526020600020905b815481529060010190602001808311610f7c57829003601f168201915b50505050508152602001600160020160009054906101000a900460ff1660ff168152505b905090565b610fca611d59565b60008390503073ffffffffffffffffffffffffffffffffffffffff168173ffffffffffffffffffffffffffffffffffffffff16636352211e846040518263ffffffff1660e01b815260040161101f919061351a565b602060405180830381865afa15801561103c573d6000803e3d6000fd5b505050506040513d601f19601f82011682018060405250810190611060919061354a565b73ffffffffffffffffffffffffffffffffffffffff16146110b6576040517f08c379a00000000000000000000000000000000000000000000000000000000081526004016110ad906135c3565b60405180910390fd5b8073ffffffffffffffffffffffffffffffffffffffff166323b872dd3085856040518463ffffffff1660e01b81526004016110f3939291906135e3565b600060405180830381600087803b15801561110d57600080fd5b505af1158015611121573d6000803e3d6000fd5b505050507feea167c0d54572a80626f5fd092a7c1f7b5d8e309533747e7e7d77b0558d6cf1848484604051611158939291906135e3565b60405180910390a150505050565b61116e611d59565b60008390508073ffffffffffffffffffffffffffffffffffffffff166370a08231306040518263ffffffff1660e01b81526004016111ac9190612827565b602060405180830381865afa1580156111c9573d6000803e3d6000fd5b505050506040513d601f19601f820116820180604052508101906111ed919061362f565b82111561122f576040517f08c379a0000000000000000000000000000000000000000000000000000000008152600401611226906136a8565b60405180910390fd5b8073ffffffffffffffffffffffffffffffffffffffff1663a9059cbb84846040518363ffffffff1660e01b815260040161126a9291906136c8565b6020604051808303816000875af1158015611289573d6000803e3d6000fd5b505050506040513d601f19601f820116820180604052508101906112ad9190613706565b6112ec576040517f08c379a00000000000000000000000000000000000000000000000000000000081526004016112e39061377f565b60405180910390fd5b7fbfed55bdcd242e3dd0f60ddd7d1e87c67f61c34cd9527b3e6455d841b102536284848460405161131f939291906135e3565b60405180910390a150505050565b611335611d59565b47811115611378576040517f08c379a000000000000000000000000000000000000000000000000000000000815260040161136f906137eb565b60405180910390fd5b8173ffffffffffffffffffffffffffffffffffffffff166108fc829081150290604051600060405180830381858888f193505050501580156113be573d6000803e3d6000fd5b507f06097061aeda806b5e9cb4133d9899f332ff0913956567fc0f7ea15e3d19947c82826040516113f0929190613860565b60405180910390a15050565b6000606060006006846040516114129190613495565b9081526020016040518091039020600001805490506006856040516114379190613495565b90815260200160405180910390206001016006866040516114589190613495565b908152602001604051809103902060020160009054906101000a900460ff1681805461148390612d93565b80601f01602080910402602001604051908101604052809291908181526020018280546114af90612d93565b80156114fc5780601f106114d1576101008083540402835291602001916114fc565b820191906000526020600020905b8154815290600101906020018083116114df57829003601f168201915b505050505091509250925092509193909250565b6000600760008373ffffffffffffffffffffffffffffffffffffffff1673ffffffffffffffffffffffffffffffffffffffff16815260200190815260200160002060009054906101000a900460ff169050919050565b61156e611d59565b6001600560008373ffffffffffffffffffffffffffffffffffffffff1673ffffffffffffffffffffffffffffffffffffffff16815260200190815260200160002060006101000a81548160ff0219169083151502179055507f44d6d25963f097ad14f29f06854a01f575648a1ef82f30e562ccd3889717e339816040516115f59190612827565b60405180910390a150565b611608611d59565b6116126000611c95565b565b600460009054906101000a900460ff1615801561163e5750600460019054906101000a900460ff16155b61167d576040517f08c379a000000000000000000000000000000000000000000000000000000000815260040161167490612c8f565b60405180910390fd5b611685611d59565b6001600460006101000a81548160ff0219169083151502179055507f6f5ffb7e2a6656882126927a79e460ca27ab657927d593522b90dc28229f7dbc60405160405180910390a1565b6116d6611d59565b6001600460016101000a81548160ff0219169083151502179055507ff98d23542e6b450416e0b520056e92dd8e76a9e243d06064ecc66da9d0ea934a60405160405180910390a1565b60008060009054906101000a900473ffffffffffffffffffffffffffffffffffffffff16905090565b61175061171f565b73ffffffffffffffffffffffffffffffffffffffff163373ffffffffffffffffffffffffffffffffffffffff1614806117d25750600560003373ffffffffffffffffffffffffffffffffffffffff1673ffffffffffffffffffffffffffffffffffffffff16815260200190815260200160002060009054906101000a900460ff165b611811576040517f08c379a000000000000000000000000000000000000000000000000000000000815260040161180890612c23565b60405180910390fd5b600460009054906101000a900460ff1615801561183b5750600460019054906101000a900460ff16155b61187a576040517f08c379a000000000000000000000000000000000000000000000000000000000815260040161187190612c8f565b60405180910390fd5b60405180606001604052808481526020018381526020018260ff16815250600160008201518160000190816118af9190613889565b5060208201518160010190816118c59190613889565b5060408201518160020160006101000a81548160ff021916908360ff1602179055509050507f531f333c110ea1dbc7f1b2ba42a958c57c9f2335947d8de86b73485e86d4611983838360405161191d9392919061395b565b60405180910390a1505050565b606080600060068560405161193f9190613495565b908152602001604051809103902060405180606001604052908160008201805480602002602001604051908101604052809291908181526020016000905b82821015611a2957838290600052602060002001805461199c90612d93565b80601f01602080910402602001604051908101604052809291908181526020018280546119c890612d93565b8015611a155780601f106119ea57610100808354040283529160200191611a15565b820191906000526020600020905b8154815290600101906020018083116119f857829003601f168201915b50505050508152602001906001019061197d565b505050508152602001600182018054611a4190612d93565b80601f0160208091040260200160405190810160405280929190818152602001828054611a6d90612d93565b8015611aba5780601f10611a8f57610100808354040283529160200191611aba565b820191906000526020600020905b815481529060010190602001808311611a9d57829003601f168201915b505050505081526020016002820160009054906101000a900460ff1660ff1660ff168152505090508060000151518410611b29576040517f08c379a0000000000000000000000000000000000000000000000000000000008152600401611b20906132d3565b60405180910390fd5b80600001518481518110611b4057611b3f6132f3565b5b6020026020010151816020015192509250509250929050565b6000600460009054906101000a900460ff16905090565b6000600460019054906101000a900460ff16905090565b611b8f611e6d565b60405180606001604052807f000000000000000000000000000000000000000000000000000000000000000081526020017f000000000000000000000000000000000000000000000000000000000000000081526020017f0000000000000000000000000000000000000000000000000000000000000000815250905090565b611c17611d59565b600073ffffffffffffffffffffffffffffffffffffffff168173ffffffffffffffffffffffffffffffffffffffff1603611c895760006040517f1e4fbdf7000000000000000000000000000000000000000000000000000000008152600401611c809190612827565b60405180910390fd5b611c9281611c95565b50565b60008060009054906101000a900473ffffffffffffffffffffffffffffffffffffffff169050816000806101000a81548173ffffffffffffffffffffffffffffffffffffffff021916908373ffffffffffffffffffffffffffffffffffffffff1602179055508173ffffffffffffffffffffffffffffffffffffffff168173ffffffffffffffffffffffffffffffffffffffff167f8be0079c531659141344cd1fd0a4f28419497f9722a3daafe3b4186f6b6457e060405160405180910390a35050565b611d61611de0565b73ffffffffffffffffffffffffffffffffffffffff16611d7f61171f565b73ffffffffffffffffffffffffffffffffffffffff1614611dde57611da2611de0565b6040517f118cdaa7000000000000000000000000000000000000000000000000000000008152600401611dd59190612827565b60405180910390fd5b565b600033905090565b5080546000825590600052602060002090810190611e069190611e8e565b50565b508054611e1590612d93565b6000825580601f10611e275750611e46565b601f016020900490600052602060002090810190611e459190611eb2565b5b50565b60405180606001604052806060815260200160608152602001600060ff1681525090565b60405180606001604052806000815260200160008152602001600081525090565b5b80821115611eae5760008181611ea59190611ecf565b50600101611e8f565b5090565b5b80821115611ecb576000816000905550600101611eb3565b5090565b508054611edb90612d93565b6000825580601f10611eed5750611f0c565b601f016020900490600052602060002090810190611f0b9190611eb2565b5b50565b6000604051905090565b600080fd5b600080fd5b600073ffffffffffffffffffffffffffffffffffffffff82169050919050565b6000611f4e82611f23565b9050919050565b611f5e81611f43565b8114611f6957600080fd5b50565b600081359050611f7b81611f55565b92915050565b60008060408385031215611f9857611f97611f19565b5b6000611fa685828601611f6c565b9250506020611fb785828601611f6c565b9150509250929050565b6000819050919050565b611fd481611fc1565b8114611fdf57600080fd5b50565b600081359050611ff181611fcb565b92915050565b600080fd5b600080fd5b6000601f19601f8301169050919050565b7f4e487b7100000000000000000000000000000000000000000000000000000000600052604160045260246000fd5b61204a82612001565b810181811067ffffffffffffffff8211171561206957612068612012565b5b80604052505050565b600061207c611f0f565b90506120888282612041565b919050565b600067ffffffffffffffff8211156120a8576120a7612012565b5b6120b182612001565b9050602081019050919050565b82818337600083830152505050565b60006120e06120db8461208d565b612072565b9050828152602081018484840111156120fc576120fb611ffc565b5b6121078482856120be565b509392505050565b600082601f83011261212457612123611ff7565b5b81356121348482602086016120cd565b91505092915050565b6000806000806080858703121561215757612156611f19565b5b600061216587828801611f6c565b945050602061217687828801611f6c565b935050604061218787828801611fe2565b925050606085013567ffffffffffffffff8111156121a8576121a7611f1e565b5b6121b48782880161210f565b91505092959194509250565b60007fffffffff0000000000000000000000000000000000000000000000000000000082169050919050565b6121f5816121c0565b82525050565b600060208201905061221060008301846121ec565b92915050565b60006020828403121561222c5761222b611f19565b5b600061223a84828501611f6c565b91505092915050565b600080fd5b600080fd5b60008083601f84011261226357612262611ff7565b5b8235905067ffffffffffffffff8111156122805761227f612243565b5b60208301915083600182028301111561229c5761229b612248565b5b9250929050565b60008083601f8401126122b9576122b8611ff7565b5b8235905067ffffffffffffffff8111156122d6576122d5612243565b5b6020830191508360018202830111156122f2576122f1612248565b5b9250929050565b600060ff82169050919050565b61230f816122f9565b811461231a57600080fd5b50565b60008135905061232c81612306565b92915050565b60008060008060008060008060a0898b03121561235257612351611f19565b5b600089013567ffffffffffffffff8111156123705761236f611f1e565b5b61237c8b828c0161224d565b9850985050602089013567ffffffffffffffff81111561239f5761239e611f1e565b5b6123ab8b828c016122a3565b9650965050604089013567ffffffffffffffff8111156123ce576123cd611f1e565b5b6123da8b828c0161224d565b945094505060606123ed8b828c01611fe2565b92505060806123fe8b828c0161231d565b9150509295985092959890939650565b600067ffffffffffffffff82111561242957612428612012565b5b61243282612001565b9050602081019050919050565b600061245261244d8461240e565b612072565b90508281526020810184848401111561246e5761246d611ffc565b5b6124798482856120be565b509392505050565b600082601f83011261249657612495611ff7565b5b81356124a684826020860161243f565b91505092915050565b6000602082840312156124c5576124c4611f19565b5b600082013567ffffffffffffffff8111156124e3576124e2611f1e565b5b6124ef84828501612481565b91505092915050565b60008115159050919050565b61250d816124f8565b811461251857600080fd5b50565b60008135905061252a81612504565b92915050565b6000806040838503121561254757612546611f19565b5b600061255585828601611f6c565b92505060206125668582860161251b565b9150509250929050565b600081519050919050565b600082825260208201905092915050565b60005b838110156125aa57808201518184015260208101905061258f565b60008484015250505050565b60006125c182612570565b6125cb818561257b565b93506125db81856020860161258c565b6125e481612001565b840191505092915050565b6125f8816122f9565b82525050565b6000606083016000830151848203600086015261261b82826125b6565b9150506020830151848203602086015261263582826125b6565b915050604083015161264a60408601826125ef565b508091505092915050565b6000602082019050818103600083015261266f81846125fe565b905092915050565b6000806000606084860312156126905761268f611f19565b5b600061269e86828701611f6c565b93505060206126af86828701611f6c565b92505060406126c086828701611fe2565b9150509250925092565b60006126d582611f23565b9050919050565b6126e5816126ca565b81146126f057600080fd5b50565b600081359050612702816126dc565b92915050565b6000806040838503121561271f5761271e611f19565b5b600061272d858286016126f3565b925050602061273e85828601611fe2565b9150509250929050565b61275181611fc1565b82525050565b600082825260208201905092915050565b600061277382612570565b61277d8185612757565b935061278d81856020860161258c565b61279681612001565b840191505092915050565b6127aa816122f9565b82525050565b60006060820190506127c56000830186612748565b81810360208301526127d78185612768565b90506127e660408301846127a1565b949350505050565b6127f7816124f8565b82525050565b600060208201905061281260008301846127ee565b92915050565b61282181611f43565b82525050565b600060208201905061283c6000830184612818565b92915050565b60008060006060848603121561285b5761285a611f19565b5b600084013567ffffffffffffffff81111561287957612878611f1e565b5b61288586828701612481565b935050602084013567ffffffffffffffff8111156128a6576128a5611f1e565b5b6128b286828701612481565b92505060406128c38682870161231d565b9150509250925092565b600080604083850312156128e4576128e3611f19565b5b600083013567ffffffffffffffff81111561290257612901611f1e565b5b61290e85828601612481565b925050602061291f85828601611fe2565b9150509250929050565b600081519050919050565b600082825260208201905092915050565b600061295082612929565b61295a8185612934565b935061296a81856020860161258c565b61297381612001565b840191505092915050565b600060408201905081810360008301526129988185612945565b905081810360208301526129ac8184612768565b90509392505050565b6129be81611fc1565b82525050565b6060820160008201516129da60008501826129b5565b5060208201516129ed60208501826129b5565b506040820151612a0060408501826129b5565b50505050565b6000606082019050612a1b60008301846129c4565b92915050565b7f576562436f6e747261637456353a207472616e736665722066726f6d20696e6360008201527f6f7272656374206f776e65720000000000000000000000000000000000000000602082015250565b6000612a7d602c83612757565b9150612a8882612a21565b604082019050919050565b60006020820190508181036000830152612aac81612a70565b9050919050565b7f576562436f6e747261637456353a207472616e7366657220746f20746865207a60008201527f65726f2061646472657373000000000000000000000000000000000000000000602082015250565b6000612b0f602b83612757565b9150612b1a82612ab3565b604082019050919050565b60006020820190508181036000830152612b3e81612b02565b9050919050565b7f576562436f6e747261637456353a207472616e736665722063616c6c6572206960008201527f73206e6f74206f776e6572206e6f7220617070726f7665640000000000000000602082015250565b6000612ba1603883612757565b9150612bac82612b45565b604082019050919050565b60006020820190508181036000830152612bd081612b94565b9050919050565b7f4e6f7420616e2061646d696e0000000000000000000000000000000000000000600082015250565b6000612c0d600c83612757565b9150612c1882612bd7565b602082019050919050565b60006020820190508181036000830152612c3c81612c00565b9050919050565b7f436f6e7472616374206973206c6f636b65640000000000000000000000000000600082015250565b6000612c79601283612757565b9150612c8482612c43565b602082019050919050565b60006020820190508181036000830152612ca881612c6c565b9050919050565b600081905092915050565b6000612cc68385612caf565b9350612cd38385846120be565b82840190509392505050565b6000612cec828486612cba565b91508190509392505050565b7f436f6e74656e7420747970652069732072657175697265640000000000000000600082015250565b6000612d2e601883612757565b9150612d3982612cf8565b602082019050919050565b60006020820190508181036000830152612d5d81612d21565b9050919050565b7f4e487b7100000000000000000000000000000000000000000000000000000000600052602260045260246000fd5b60006002820490506001821680612dab57607f821691505b602082108103612dbe57612dbd612d64565b5b50919050565b600082905092915050565b60008190508160005260206000209050919050565b60006020601f8301049050919050565b600082821b905092915050565b600060088302612e317fffffffffffffffffffffffffffffffffffffffffffffffffffffffffffffffff82612df4565b612e3b8683612df4565b95508019841693508086168417925050509392505050565b6000819050919050565b6000612e78612e73612e6e84611fc1565b612e53565b611fc1565b9050919050565b6000819050919050565b612e9283612e5d565b612ea6612e9e82612e7f565b848454612e01565b825550505050565b600090565b612ebb612eae565b612ec6818484612e89565b505050565b5b81811015612eea57612edf600082612eb3565b600181019050612ecc565b5050565b601f821115612f2f57612f0081612dcf565b612f0984612de4565b81016020851015612f18578190505b612f2c612f2485612de4565b830182612ecb565b50505b505050565b600082821c905092915050565b6000612f5260001984600802612f34565b1980831691505092915050565b6000612f6b8383612f41565b9150826002028217905092915050565b612f858383612dc4565b67ffffffffffffffff811115612f9e57612f9d612012565b5b612fa88254612d93565b612fb3828285612eee565b6000601f831160018114612fe25760008415612fd0578287013590505b612fda8582612f5f565b865550613042565b601f198416612ff086612dcf565b60005b8281101561301857848901358255600182019150602085019450602081019050612ff3565b868310156130355784890135613031601f891682612f41565b8355505b6001600288020188555050505b50505050505050565b600082905092915050565b60008190508160005260206000209050919050565b601f8211156130ac5761307d81613056565b61308684612de4565b81016020851015613095578190505b6130a96130a185612de4565b830182612ecb565b50505b505050565b6130bb838361304b565b67ffffffffffffffff8111156130d4576130d3612012565b5b6130de8254612d93565b6130e982828561306b565b6000601f8311600181146131185760008415613106578287013590505b6131108582612f5f565b865550613178565b601f19841661312686613056565b60005b8281101561314e57848901358255600182019150602085019450602081019050613129565b8683101561316b5784890135613167601f891682612f41565b8355505b6001600288020188555050505b50505050505050565b6000815461318e81612d93565b6131988186612caf565b945060018216600081146131b357600181146131c8576131fb565b60ff19831686528115158202860193506131fb565b6131d185612dcf565b60005b838110156131f3578154818901526001820191506020810190506131d4565b838801955050505b50505092915050565b60006132108284613181565b915081905092915050565b7f436f6e74656e742074797065206d69736d617463680000000000000000000000600082015250565b6000613251601583612757565b915061325c8261321b565b602082019050919050565b6000602082019050818103600083015261328081613244565b9050919050565b7f4368756e6b20696e646578206f7574206f6620626f756e647300000000000000600082015250565b60006132bd601983612757565b91506132c882613287565b602082019050919050565b600060208201905081810360008301526132ec816132b0565b9050919050565b7f4e487b7100000000000000000000000000000000000000000000000000000000600052603260045260246000fd5b600081905092915050565b6000815461333a81612d93565b6133448186613322565b9450600182166000811461335f5760018114613374576133a7565b60ff19831686528115158202860193506133a7565b61337d85613056565b60005b8381101561339f57815481890152600182019150602081019050613380565b838801955050505b50505092915050565b60006133bc828461332d565b915081905092915050565b60006133d38385613322565b93506133e08385846120be565b82840190509392505050565b60006133f98284866133c7565b91508190509392505050565b60006134118385612757565b935061341e8385846120be565b61342783612001565b840190509392505050565b6000604082019050818103600083015261344d818587613405565b905061345c6020830184612748565b949350505050565b600061346f82612570565b6134798185612caf565b935061348981856020860161258c565b80840191505092915050565b60006134a18284613464565b915081905092915050565b600060208201905081810360008301526134c68184612768565b905092915050565b7f72656469726563742f0000000000000000000000000000000000000000000000815250565b60006134ff826134ce565b60098201915061350f8284613181565b915081905092915050565b600060208201905061352f6000830184612748565b92915050565b60008151905061354481611f55565b92915050565b6000602082840312156135605761355f611f19565b5b600061356e84828501613535565b91505092915050565b7f546f6b656e206e6f74206f776e656420627920636f6e74726163740000000000600082015250565b60006135ad601b83612757565b91506135b882613577565b602082019050919050565b600060208201905081810360008301526135dc816135a0565b9050919050565b60006060820190506135f86000830186612818565b6136056020830185612818565b6136126040830184612748565b949350505050565b60008151905061362981611fcb565b92915050565b60006020828403121561364557613644611f19565b5b60006136538482850161361a565b91505092915050565b7f496e73756666696369656e7420746f6b656e2062616c616e6365000000000000600082015250565b6000613692601a83612757565b915061369d8261365c565b602082019050919050565b600060208201905081810360008301526136c181613685565b9050919050565b60006040820190506136dd6000830185612818565b6136ea6020830184612748565b9392505050565b60008151905061370081612504565b92915050565b60006020828403121561371c5761371b611f19565b5b600061372a848285016136f1565b91505092915050565b7f546f6b656e207472616e73666572206661696c65640000000000000000000000600082015250565b6000613769601583612757565b915061377482613733565b602082019050919050565b600060208201905081810360008301526137988161375c565b9050919050565b7f496e73756666696369656e742062616c616e6365000000000000000000000000600082015250565b60006137d5601483612757565b91506137e08261379f565b602082019050919050565b60006020820190508181036000830152613804816137c8565b9050919050565b600061382661382161381c84611f23565b612e53565b611f23565b9050919050565b60006138388261380b565b9050919050565b600061384a8261382d565b9050919050565b61385a8161383f565b82525050565b60006040820190506138756000830185613851565b6138826020830184612748565b9392505050565b61389282612570565b67ffffffffffffffff8111156138ab576138aa612012565b5b6138b58254612d93565b6138c0828285612eee565b600060209050601f8311600181146138f357600084156138e1578287015190505b6138eb8582612f5f565b865550613953565b601f19841661390186612dcf565b60005b8281101561392957848901518255600182019150602085019450602081019050613904565b868310156139465784890151613942601f891682612f41565b8355505b6001600288020188555050505b505050505050565b600060608201905081810360008301526139758186612768565b905081810360208301526139898185612768565b905061399860408301846127a1565b94935050505056fea2646970667358221220e41cbde8ace444b5e5ccbf6e271bc6139fca12383a0efc13a9eb42d1dfad660d64736f6c63430008180033",
  "linkReferences": {},
  "deployedLinkReferences": {}
}